:020000021000EC
:10B0000000400020E10102002102020023020200B0
:10B010000000000000000000000000000000000030
:10B0200000000000000000000000000025020200F7
:10B0300000000000000000002702020029020200B8
:10B04000F5CD01002B020200B5E201002B02020047
:10B050002B02020000000000E9D201002B020200D6
:10B060002B0202002B0202002B0202002B02020024
:10B070002B0202002B0202002B0202002B02020014
:10B080002B020200F1C801002B0202002B02020079
:10B090003DC901002B020200790002002B020200D0
:10B0A0002B0202002B020200000000000000000042
:10B0B0000000000000000000000000000000000090
:10B0C00010B5064C2378002B07D1054B002B02D07E
:10B0D000044800E000BF0123237010BD08190020C0
:10B0E00000000000580F020008B5084B002B03D0E9
:10B0F0000748084900E000BF07480368002B00D15B
:10B1000008BD064B002BFBD09847F9E70000000074
:10B11000580F02000C190020041900200000000044
:10B12000164B002B00D1144B9D46402292029A1AD6
:10B13000924600218B460F461348144A121A00F01B
:10B1400067F80F4B002B00D098470E4B002B00D018
:10B1500098470020002104000D000D48002802D06F
:10B160000C4800E000BF00F02DF82000290003F09B
:10B1700097FD00F011F8C0460000080000400020D4
:10B18000000000000000000008190020341C00200E
:10B190000000000000000000084B10B5041C002B4C
:10B1A00002D0002100E000BF054B1868836A002B25
:10B1B00000D09847201C00F033F8C0460000000083
:10B1C000D00B02000E4B70B500251E1C0D4CE41A6E
:10B1D000A410A54204D0AB00F35898470135F8E716
:10B1E00005F0E8FC084B00251E1C084CE41AA410CE
:10B1F000A54204D0AB00F35898470135F8E770BD7D
:10B20000FC180020FC180020FC1800200019002069
:10B21000031C8218934202D019700133FAE7704779
:10B22000FEE7C04680B582B000AF786039607B68C9
:10B230001B78012B02D1034B01221A70BD4602B0CC
:10B2400080BDC046261A002090B58DB000AF021C0C
:10B25000FB1D1A70294B1B78002B07D0284B1B783D
:10B26000FA1D12789A4201D1002342E00C23FB1808
:10B27000244A13CA13C313CA13C303CA03C30C2338
:10B28000FB1800221A750C23FB1809221A600C23E4
:10B29000FB180B225A600C23FB180822DA600C23DF
:10B2A000FB180A229A600C23FB18174A9A61174B65
:10B2B000181C02F057FDFB1D1B78002B01D000234A
:10B2C00000E0134B11490C22BA18081C111C1A1C5F
:10B2D00002F0FCFC031CFB62FB6A002B01D0FB6A42
:10B2E00007E0064B01221A70054BFA1D12781A70FE
:10B2F0000023181CBD460DB090BDC046241A002086
:10B30000251A0020DC0B020000E0D701D418002031
:10B3100025B2010090B583B000AFFB1D00221A706A
:10B32000FC1D064B181C02F021FE031C2370FB1DA4
:10B330001B78181CBD4603B090BDC046D418002031
:10B3400080B584B000AF786039600F23FB1801220C
:10B350001A7010497A683B68081C111C1A1C04F00A
:10B36000F7FF3B68DBB20C490A4A081C111C1A1C87
:10B3700002F0CCFD031CBB60BB68002B03D00F2385
:10B38000FB1800221A700F23FB181B78181CBD46EF
:10B3900004B080BD24190020D418002080B584B0EA
:10B3A00000AF786039603B68002B04DA0F23FB188C
:10B3B00000221A7009E07B681A683B68D2187B6823
:10B3C0001A600F23FB1801221A700F23FB181B7839
:10B3D000181CBD4604B080BD90B587B000AFF860C2
:10B3E000B9607A6000233B611723FB1801221A70B1
:10B3F000FB68002B2BD004233B613B69B968194AD9
:10B40000081C111C1A1C04F0A3FF7B681A683B6916
:10B41000D2187B681A603B69BA68D118FB681B6850
:10B420001C1C80235A00104B081C111C1A1C231CC6
:10B4300004F098FF031C3B611723FC187A683B69F2
:10B44000101C191CFFF7AAFF031C237002E07B6885
:10B4500000221A601723FB181B78181CBD4607B082
:10B4600090BDC046D40B0200FC0B0200F0B547466D
:10B4700080B4CEB006AFB9607A603B60B04B90222A
:10B4800052009446BC446344021C1A7000238E226E
:10B490005200BA18136000233B611C23FF33FB18D2
:10B4A00001221A70FFF736FF031E01D0002341E18D
:10B4B0003B691422BA18D218B9681023FB18081C6B
:10B4C000111C1A1CFFF788FF031C1A1C0123534090
:10B4D000DBB2002B01D000232CE19C235B00FB1886
:10B4E0001B68062B00D9E8E09C235B00FB181B6857
:10B4F0009A00944BD3181B689F467B68181C04F075
:10B5000065FF031C8E225200BA1813608E235B0065
:10B51000FB181A683B69D318FF2B0ED83B6914221D
:10B52000BA18D1188E235B00FB181B687A68081CB8
:10B53000111C1A1C04F00CFFC0E0BFE03B69142290
:10B54000BA18D0183B6980225200D11A3B681B6898
:10B550007A6804F007FF031C8E225200BA181360A9
:10B56000ACE03B691422BA18D0183B698022520023
:10B57000D11A3B681C683B6804331B687A680093E7
:10B58000231C04F0EFFE031C8E225200BA18136035
:10B5900094E03B691422BA18D0183B69802252000B
:10B5A000D11A3B681C683B6804331A683B6808334F
:10B5B0001B687D68009201932A1C231C04F0D2FEB4
:10B5C000031C8E225200BA18136077E03B691422E4
:10B5D000BA18D0183B6980225200D61A3B681C6802
:10B5E0003B68043319683B6808331A683B680C33BE
:10B5F0001B687D68009101920293311C2A1C231C58
:10B6000004F0B0FE031C8E225200BA18136055E0FD
:10B610003B691422BA1894469C443B69802252002C
:10B62000D61A3B681C683B68043318683B680833CB
:10B6300019683B680C331A683B6810331B687D68D7
:10B6400000900191029203936046311C2A1C231C36
:10B6500004F088FE031C8E225200BA1813602DE0FD
:10B660003B691422BA18904698443B6980225200E4
:10B67000D31A9C463B681D683B6804331C683B68D2
:10B68000083318683B680C3319683B6810331A6834
:10B690003B6814331B687E6800940190029103920A
:10B6A000049340466146321C2B1C04F05BFE031CD5
:10B6B0008E225200BA18136000E0C0461C23FF33EC
:10B6C000FC181023FA188E235B00FB181B68101C53
:10B6D000191CFFF763FE031C23703B6904338A22A5
:10B6E0005200BA1813601C23FF33FB181B78002B81
:10B6F0001FD08A235B00FB181A6880235B009A42E4
:10B7000017D83B691422BA18D2180F4B101C191CF9
:10B71000042204F01DFE8A235B00FB181B683B61BA
:10B720003B691422BA18101C191CFFF709FE031CF0
:10B7300000E00023181CBD4648B004BC9046F0BD94
:10B74000EFFEFFFF040C0200D40B020080B584B0B2
:10B7500000AF021C3960FB1D1A700223FB6020E061
:10B76000FB1D1B78FA6892001341DAB20B23FB1819
:10B770000F210A401A70FB680122D31A3A68D218C6
:10B780000B23FB181B78092B05D90B23FB181B78FF
:10B790003733DBB204E00B23FB181B783033DBB20A
:10B7A0001370FB685A1EFA60002BD9D1BD4604B055
:10B7B00080BDC04680B5D0B000AFB9607A603B6054
:10B7C000E74BA02252009446BC446344021C1A700A
:10B7D00000233B613B6896225200BA181360A623EF
:10B7E0005B00FB181A68AA235B00FB181B68D318C0
:10B7F00092225200BA181360BB68002B01D00A23B2
:10B8000000E0002390225200BA181360FFF782FD77
:10B81000031E01D03B68BAE13B68002B3DD13B6978
:10B820001422BA18D218B9681023FB18081C111C6E
:10B830001A1CFFF7D1FD031C1A1C01235340DBB275
:10B84000002B01D03B68A2E17B68181C04F0BEFD10
:10B85000031C8E225200BA1813608E235B00FB1863
:10B860001B68C22B00D9C2238E225200BA18136063
:10B870003B691422BA18D1187A688E235B00FB1832
:10B880001B68081C111C1A1C04F062FD3A698E2307
:10B890005B00FB181B68D3183B613B698C2252008C
:10B8A000BA1813608C235B00FB181A6890235B00A6
:10B8B000FB181B68D31831338A225200BA18136060
:10B8C0001423FA188C235B00FB181B68D3189E22E4
:10B8D0005200BA1813601423FA188A235B00FB186D
:10B8E0001B68D3189C225200BA18136000239422BC
:10B8F0005200BA18136017E09E235B00FB181B6808
:10B9000020221A709E235B00FB181B6801339E22C5
:10B910005200BA18136094235B00FB181B680133B4
:10B9200094225200BA18136094235B00FB181A6823
:10B9300090235B00FB181B689A42DDD300239822FA
:10B940005200BA181360B1E096235B00FB181A6826
:10B9500092235B00FB181B689A422CD39E235B004A
:10B96000FB181B685A1C9E21490079180A60202286
:10B970001A709E235B00FB181B685A1C9E2149000D
:10B9800079180A6020221A709E235B00FB181B683E
:10B990005A1C9E21490079180A6020221A709C23A3
:10B9A0005B00FB181B685A1C9C21490079180A602F
:10B9B00020221A7071E096235B00FB181A68A623F8
:10B9C0005B00FB181B689A420ED2A4235B00FB1895
:10B9D0001A6896235B00FB181B68D2183823FF33C4
:10B9E000FB1812781A7012E096235B00FB181A6895
:10B9F000A6235B00FB181B68D31AA8225200BA18B2
:10BA00001268D2183823FF33FB1812781A703823C3
:10BA1000FF33FB181A789E235B00FB181B68101C71
:10BA2000191CFFF793FE9E235B00FB181B68023373
:10BA30009E225200BA1813609E235B00FB181B68FD
:10BA40005A1C9E21490079180A6020221A709C23F2
:10BA50005B00FB181B685A1C9C21490079180A607E
:10BA6000404A11683822FF32BA18127801328A1817
:10BA70001278111C97220A4004D03822FF32BA18DB
:10BA8000127800E02E221A7096235B00FB181B68C8
:10BA9000013396225200BA18136098235B00FB18FA
:10BAA0001B68013398225200BA18136098235B0078
:10BAB000FB181B680F2B00D846E79C235B00FB1884
:10BAC0001B685A1C9C21490079180A600D221A70C3
:10BAD0009C235B00FB181B685A1C9C2149007918A9
:10BAE0000A600A221A709E235B00FB181B685A1C0E
:10BAF0009E21490079180A6020221A703A69902321
:10BB00005B00FB181B68D31843333B613B6914226D
:10BB1000BA18D218144B101C191C042204F018FC7B
:10BB20003B6904333B613B691422BA18101C191C91
:10BB3000FFF706FC031C1A1C01235340DBB2002B49
:10BB400004D096235B00FB181B6820E0FFF7E2FBA4
:10BB5000031E0BD096235B00FB181B6817E0C04642
:10BB6000CFFEFFFFF8180020D40B020000233B613A
:10BB700096235B00FB181A6892235B00FB181B6876
:10BB80009A4200D289E696235B00FB181B68181CBA
:10BB9000BD4650B080BDC04680B500AF014B181CFB
:10BBA000BD4680BD6DB4010080B500AF014B181CCF
:10BBB000BD4680BDB5B7010090B585B000AF7860D7
:10BBC0000120FFF741FB031CFB60FB68002B0BD13E
:10BBD000FFF7E2FF041CFFF7E7FF021C7B68201C55
:10BBE000111C1A1C00F006F8FB68181CBD4605B0B5
:10BBF00090BDC04680B584B000AFF860B9607A608F
:10BC0000FA68BB68101C191C00F004F8BD4604B0AB
:10BC100080BDC04680B582B000AF78603960044B0B
:10BC20007A685A61024B3A689A61BD4602B080BD9B
:10BC3000281A0020B0B588B002AFB9607A603B60C6
:10BC40000F23FB18021C1A7000233B6100237B6149
:10BC5000074B5C690F23FB1818787969BA687D680F
:10BC60003B6800932B1CA047BD4606B0B0BDC04644
:10BC7000281A002080B582B000AF021C3960FB1D7D
:10BC80001A70FB1D1A783B68101C191C0022002337
:10BC9000FFF7D0FFBD4602B080BDC04680B586B07C
:10BCA00000AFB9607A600F23FB18021C1A707B6822
:10BCB0007B610F23FB181978BA681423FB18081C42
:10BCC000111C1A1C0123FFF7B5FFBD4606B080BD4D
:10BCD00080B586B000AF78600C23FB1800221A8074
:10BCE0000C23FB1800225A600C23FB187A689A6018
:10BCF0000C23FB18044A101C00211A1C00F016F833
:10BD0000BD4606B080BDC0460140000080B500AF12
:10BD1000BFF34F8F034B044ADA60BFF34F8FC04627
:10BD2000FDE7C04600ED00E00400FA0580B584B0F0
:10BD300000AFF860B9607A60044B0120191CFFF76E
:10BD400099FFFFF7E3FFBD4604B080BD200C020061
:10BD500080B582B000AF021CFB1D1A70064BFA1DA5
:10BD60001278111C1F220A40012191400A1C1A60FE
:10BD7000BD4602B080BDC04600E100E080B582B0A3
:10BD800000AF021CFB1D1A700649FB1D1B781A1C14
:10BD90001F23134001229A40131C80228B50BD4662
:10BDA00002B080BD00E100E080B582B000AF021CAF
:10BDB000FB1D1A700649FB1D1B781A1C1F2313401C
:10BDC00001229A4080235B00CA50BD4602B080BD6C
:10BDD00000E100E080B582B000AF021CFB1D1A70CC
:10BDE0000649FB1D1B781A1C1F23134001229A4091
:10BDF000C0235B00CA50BD4602B080BD00E100E038
:10BE0000B0B582B000AF021C3960FB1D1A70FB1D7B
:10BE10001B787F2B2FD92D4CFB1D1B781A1C0F2351
:10BE20001340083B9908294AFB1D1B78181C0F2357
:10BE30000340083B9B0806339B00D3185B68FA1D40
:10BE40001278101C03220240D200101CFF228240F4
:10BE5000D2431A403B689B01FF200340F81D007845
:10BE6000051C03202840C00083401A438B1D9B0003
:10BE7000E3185A6026E0164CFB1D1B785BB29B084A
:10BE80001349FA1D127852B29208C03292005258E9
:10BE9000F91D0978081C03210140C900081CFF2175
:10BEA0008140C94311403A689201FF200240F81DC9
:10BEB0000078051C03202840C00082400A43C0339C
:10BEC0009B001A51BD4602B0B0BDC04600ED00E077
:10BED00000E100E080B582B000AF78607B680322AB
:10BEE00013405A425341DBB2181CBD4602B080BD1C
:10BEF00080B584B000AF78600C4BFB607B68002B92
:10BF000011D00B4B1A68F9687B68C046C046C04622
:10BF1000C046C046C046C046C0468A4200D0C04661
:10BF2000013BF2D17B60BD4604B080BD0024F4002B
:10BF3000F418002080B582B000AF78600549A123D5
:10BF4000DB007A68CA5011200321FFF759FFBD4674
:10BF500002B080BD0010014080B500AF0E49D12372
:10BF60009B0080225202CA500B49C1239B008022B1
:10BF70005202CA501120FFF72DFF1120FFF7E8FEF3
:10BF8000054B01221A602F20FFF7B2FF034B01225D
:10BF90001A70BD4680BDC04600100140641A0020E2
:10BFA00080B500AF1120FFF7E9FE1049D2239B00B6
:10BFB00080225202CA500D49C2239B0080225202A5
:10BFC000CA500A4B01225A602F20FFF791FF074BFE
:10BFD00001229A60064B00221A602F20FFF788FF8B
:10BFE000044B00221A70BD4680BDC04600100140BF
:10BFF000501A0020641A002080B500AF024A034B9B
:10C00000D358181CBD4680BD001001400405000037
:10C0100080B582B000AF786039607A683B68D31A27
:10C020001B021B0A181CBD4602B080BD80B582B041
:10C0300000AF78600349A823DB007A68CA50BD4688
:10C0400002B080BD0010014080B586B000AF7860BE
:10C05000284B1B68002B03D1264B7A681A6045E0F9
:10C060007B681A68234B1B681B689A4210D8214BC7
:10C070001B68204A126811687A6812688A1A1A6066
:10C080001C4B1A687B68DA611A4B7A681A602DE0DB
:10C090007B681B68FB60174B1B687B61154B1B683B
:10C0A0003B6109E03B691B68FA68D31AFB603B6996
:10C0B0007B613B69DB693B613B69002B04D03B69D9
:10C0C0001A68FB689A42EDD33B69002B05D03B69A7
:10C0D0001A68FB68D21A3B691A607B68FA681A60B2
:10C0E0007B683A69DA617B697A68DA61BD4606B0D5
:10C0F00080BDC0464C1A002080B586B000AF786085
:10C10000214B1B687B617B693B6109E03A697B6875
:10C110009A4200D107E03B697B613B69DB693B6187
:10C120003B69002BF2D13B69002B00D128E07A69F2
:10C130003B699A4211D1144B1B68DA69124B1A60A1
:10C14000114B1B68002B08D1104B01229A60104B39
:10C1500000221A600F4B01221A703B691B68FB60BA
:10C160003B69DA697B69DA617B69DB693B613B6961
:10C17000002B05D03B691A68FB68D2183B691A602E
:10C18000BD4606B080BDC0464C1A002000100140DC
:10C19000501A0020651A002080B500AF1120FFF76B
:10C1A00003FEBD4680BDC04680B500AF1420FFF73A
:10C1B000FBFDBD4680BDC04680B584B000AF786051
:10C1C000114B1B68002B15D00F4B1A687B685969FF
:10C1D0007B689B69081C191C9047031CFB60FB686B
:10C1E000BB60BB68002B04D0BB68181CFFF770FD58
:10C1F00006E005E07B685A697B689B69181C9047DC
:10C20000BD4604B080BDC046601A002080B584B031
:10C2100000AF2B4B1B68002B4FD000237B60FFF738
:10C22000EBFE021C274B1B68101C191CFFF7F0FECD
:10C23000031CBB60224B1B68FB601FE0FB681A6895
:10C24000BB689A4200D91CE0FB681B68BA68D31A25
:10C25000BB60FB681B687A68D3187B60FB683B6037
:10C26000FB68DB69FB603B681B7C002B06D03B68EE
:10C2700000221A743B68181CFFF79EFFFB68002B16
:10C28000DCD1114B1A78114B1B789A420CD10F4B11
:10C290001B780133DAB20D4B1A700C4B1B78022B52
:10C2A00002D10A4B00221A70084B1B781A1C084B4B
:10C2B00092007968D150FFF777FFBD4604B080BD8A
:10C2C0004C1A0020501A00205C1A00205D1A002031
:10C2D000541A002080B582B000AF7860184B1A78ED
:10C2E000184B1B789A4223D0154B1B780133DAB2D6
:10C2F000134B1A70124B1B78022B02D1104B0022E9
:10C300001A700F4B1B781A1C0F4B9200D2587B6887
:10C310001A607B681A680D4B1B68D2180B4B1A60A9
:10C320000A4B1B681B021A0A084B1A60012303E020
:10C330007B6800221A600023181CBD4602B080BD35
:10C340005C1A00205D1A0020541A0020501A0020A8
:10C3500080B584B000AF0F23FB18294A12781A70F9
:10C36000284B1B68BB6039E0254B59680F23FB182D
:10C370001A78131C5B009B18DB00CB187B600F2323
:10C38000FB181A780F23FB1801321A701C4B9B788C
:10C390000F22BA1812789A4203D10F23FB180022F9
:10C3A0001A707B681B78022B02D0032B10D014E08C
:10C3B0007B685B68181CFFF79FFE0FE0114B1B6842
:10C3C0003B603B6800221A743B68DA690D4B1A60C7
:10C3D0000C4B1B68002BF1D100E0C046084B5B788A
:10C3E0000F22BA1812789A42BED1064B1A68BB685F
:10C3F000D31A5A1E9341DBB2181CBD4604B080BD4F
:10C40000441A00204C1A002080B588B000AFF860B4
:10C41000B9607A600023FB6138E0204B1B68BB6188
:10C42000BB691A68FB689A4206D9BB691A68FB683F
:10C43000D21ABB691A602DE0BB691B68FA68D31A6F
:10C44000FB60BB691B68FA69D318FB61BB690022FA
:10C450001A60124B1B687B61BB69DA690F4B1A606B
:10C46000BB69DB68002B11D0BA68FB69D3181B02CB
:10C470001A0ABB695A60BB69DA68BB699A607B6853
:10C480001A68BB69DA617B687A691A60034B1B68BA
:10C49000002BC2D1BD4608B080BDC0464C1A00205A
:10C4A00080B586B000AF7860504B1B683B6187E079
:10C4B0007B68002B05D07B687B617B69DB697B60D7
:10C4C0003CE04B4B5A684A4B1B78191C0B1C5B0019
:10C4D0005B18DB00D318FB60454B1B780133DAB2E5
:10C4E000434B1A70424B1A78414B9B789A4202D1C7
:10C4F0003F4B00221A70FB685B687B61FB681B780E
:10C50000012B03D17B691B7C002B00D058E0FB681A
:10C510009A687B695A60FB68DA687B699A60FB6895
:10C520001A697B69DA60FB685A697B699A61314BE9
:10C530001B78002B02D07B6900225A607B695A6805
:10C540002D4B1B68D31A1B021B0A2C4A93420ED890
:10C550007B695A68284B1B68101C191CFFF758FD93
:10C56000021C7B699B68D2187B691A6018E0224B19
:10C570001A687B695B68101C191CFFF749FD031CD6
:10C58000BB607B699A68BB689A4206D97B699A68E6
:10C59000BB68D21A7B691A6002E07B6900221A60CC
:10C5A0007B6900225A607B6900229A607B690122C4
:10C5B0001A747B690022DA617B69181CFFF744FD5D
:10C5C0007B68002B00D073E7094B1A78084B5B7827
:10C5D0009A4200D06CE7054B1A683B69D31A5A1E81
:10C5E0009341DBB2181CBD4606B080BD4C1A00203A
:10C5F000441A0020651A0020501A0020FEFF7F0018
:10C6000090B589B000AF78602B4B1B68002B4ED0E3
:10C61000294B1B681B68FB61FFF7EEFC031CBB6129
:10C62000264B1B687B61BA697B69101C191CFFF7DC
:10C63000EFFC031C03333B61214B1B780122534069
:10C64000DBB2002B01D0FFF787FCFA693B6993420C
:10C6500000D2131C7A69D3187B617B691B021B0A09
:10C660007B617B69181CFFF7E1FCFFF7C5FC031C2D
:10C67000FB60FA68BB69101C191CFFF7C9FC031C9E
:10C68000DC1C7A69BB69101C191CFFF7C1FC031C78
:10C690009C420BD9FFF7B0FC031C181CFFF7C6FC2B
:10C6A0002F20FFF725FCFFF777FD02E001E0FFF701
:10C6B00077FCBD4609B090BD4C1A0020501A0020EE
:10C6C000641A002090B587B000AF00237B601F4B39
:10C6D0001B683B611E4B1B68FB600B23FC183B1C5B
:10C6E000181CFFF7F7FD031C23701723FC18FFF736
:10C6F0002FFE031C23700B23FB181B78002B0BD081
:10C7000039683A693B1D081C111C1A1CFFF77CFE96
:10C710001723FB1801221A707B68181CFFF7C0FE54
:10C72000031E03D01723FB1801221A701723FB18CE
:10C730001B78002B03D0FB68181CFFF761FF054B2B
:10C7400000221A70BD4607B090BDC046501A0020A6
:10C750004C1A0020651A002080B582B000AF021C80
:10C76000FB1D1A70034BFA1D12785A70BD4602B0B9
:10C7700080BDC046441A002080B584B000AF786008
:10C78000174B5A780F23FB1801321A70144B9B7801
:10C790000F22BA1812789A4203D10F23FB180022F5
:10C7A0001A700F4B1B780F22BA1812789A4201D1D7
:10C7B000002310E07B680F22BA1812781A70084B19
:10C7C0005A68074B5B78191C0B1C5B005B18DB007D
:10C7D000D318BB60BB68181CBD4604B080BDC04602
:10C7E000441A002080B588B000AFF860B9607A6064
:10C7F0003B600023FB611623FB1800221A701623EE
:10C80000FB18181C00F0F8F91723FB18181CFFF789
:10C81000B3FF031CBB61BB69002B02D10423FB6186
:10C8200019E0BB6901221A70BB69FA685A60FFF708
:10C83000E3FB021CBB699A60BB69BA68DA60BB693A
:10C840007A681A61BB693A685A611723FB181B782A
:10C85000181CFFF781FF1623FB181B78181C00F02B
:10C86000D7F9FB69002B01D1FFF79EFCFB69181C6F
:10C87000BD4608B080BDC04680B586B000AF7860C8
:10C880000A1CFB1C1A7000237B610E23FB1800227C
:10C890001A700E23FB18181C00F0AEF90F23FB18BA
:10C8A000181CFFF769FF031C3B613B69002B02D199
:10C8B00004237B610CE03B69FA1C12781A703B6917
:10C8C0007A685A600F23FB181B78181CFFF744FF87
:10C8D0000E23FB181B78181C00F09AF97B69002BBB
:10C8E00001D1FFF761FC7B69181CBD4606B080BD15
:10C8F00080B500AF104AA0235B000021D1500E4A42
:10C90000A2235B000021D1500B4AA4235B0000212D
:10C91000D150094AA6235B000021D150064A80234A
:10C920005B000021D150044A82235B000021D150DA
:10C93000FFF76CFCBD4680BD0010014080B500AF24
:10C94000FFF7C0FEBD4680BD80B584B000AFF86083
:10C950007A603B600B23FB180A1C1A707B68181C5A
:10C96000FFF7B8FA031C1A1C01235340DBB2002B5B
:10C9700001D0072334E07B68002B01D107232FE08F
:10C98000FFF70EFB184B3A681A60184B00221A701A
:10C99000164B00225A70154B0B22BA1812789A7057
:10C9A000124B7A685A60124B00221A60114B002217
:10C9B0001A70114B00221A701420FFF70BFA142082
:10C9C0000321FFF71DFA1420FFF7C2F9FB68181CBA
:10C9D000FFF7B0FAFFF710FB021C084B1A600023A8
:10C9E000181CBD4604B080BD601A0020441A002007
:10C9F0004C1A00205C1A00205D1A0020501A0020FA
:10CA000080B586B000AFF8607A600B23FB180A1C73
:10CA10001A70154B5B68002B01D108231FE07B685F
:10CA2000002B01D107231AE0FB68002B01D107235B
:10CA300015E0FB681B681B7C002B01D008230EE06F
:10CA4000FB681B687B617B6900221A747B690B227F
:10CA5000BA1812785A747B697A685A610023181CD4
:10CA6000BD4606B080BDC046441A002080B586B0E1
:10CA700000AFF860B9607A60FB687B61144B5B685B
:10CA8000002B01D108231EE0FB68002B01D10823F5
:10CA900019E0BB68042B01D8072314E07B695B69AC
:10CAA000002B01D108230EE07B695B7C012B01D1B7
:10CAB000BB6800E000233B617869B9683A697B682C
:10CAC000FFF790FE031C181CBD4606B080BDC04693
:10CAD000441A002080B584B000AF78607B68FB60AA
:10CAE0000D4B5B68002B01D1082311E07B68002B04
:10CAF00003D0FB685B69002B01D1082308E0FB68C9
:10CB000000221A74FB68181C0221FFF7B5FE031CF3
:10CB1000181CBD4604B080BD441A002080B582B008
:10CB200000AFEFF310833B603B687B6072B67B68BD
:10CB3000181CBD4602B080BD80B500AF62B6BD46D0
:10CB400080BDC04680B584B000AF7860FFF7E6FFD7
:10CB5000031CFB60114B5B68002B11D10F4B0122B2
:10CB60005A600F4A8023D3580E4A1A400B4B1A6062
:10CB70000B4A80230B49D1507B6800221A7002E0D7
:10CB80007B6801221A70FB68002B01D1FFF7D4FFEC
:10CB90000023181CBD4604B080BDC046281C0020E0
:10CBA00000E100E0FC06FFBC80B584B000AF021CD1
:10CBB000FB1D1A700E4B5B68002B13D0FB1D1B78FE
:10CBC000002B0FD1FFF7AAFF031CFB60094A084B9B
:10CBD0001B681360064B00225A60FB68002B01D1D2
:10CBE000FFF7AAFF0023181CBD4604B080BDC04655
:10CBF000281C002000E100E080B582B000AF786022
:10CC00007B68181CFFF79EFFBD4602B080BDC04682
:10CC100080B582B000AF021CFB1D1A70FB1D1B7893
:10CC2000181CFFF7C1FFBD4602B080BD80B582B0C1
:10CC300000AF78608023DA05C2239B007968D15069
:10CC4000BD4602B080BDC04680B582B000AF021CB8
:10CC5000BB1D1A80BB1D1B888022D20594466344ED
:10CC600000221A60BD4602B080BDC04680B582B0C9
:10CC700000AF021CBB1D1A80BB1D1B888022D20581
:10CC8000944663441B685A1E9341DBB2181CBD4690
:10CC900002B080BD80B582B000AF021CFB1D1A70CF
:10CCA0008023DA05FB1D1B7803211940A323DB0039
:10CCB000D150BD4602B080BD80B582B000AF021C2D
:10CCC000FB1D1A700B4AFB1D1B785BB25B099B00B6
:10CCD0009A58FB1D1B78191C1F230B40DA40131CAC
:10CCE000012213405A1E9341DBB2181CBD4602B00C
:10CCF00080BDC04600E100E080B500AF0020FFF736
:10CD0000DBFF031C1A1C01235340DBB2002B03D0B2
:10CD10000020032100F068F9BD4680BD80B582B0D7
:10CD200000AF00237B60144B1B78002B02D08523BF
:10CD30007B601CE0104B00229A600F4B00225A606F
:10CD40000D4B00221A610C4B0022DA60FFF7D4FF72
:10CD500003F028F9031C1A1C01235340DBB2002BFB
:10CD600002D00120FFF796FF034B01221A707B6867
:10CD7000181CBD4602B080BD681A002080B584B082
:10CD800000AF78607B681B68FB60FB68002B03D0FA
:10CD9000FB681A687B681A60FB68181CBD4604B003
:10CDA00080BDC04680B584B000AF021CFB1D1A7068
:10CDB000FB1D1B78002B02D10C4BFB6001E00C4BE0
:10CDC000FB60FB68181CFFF7D9FF031CBB60BB6846
:10CDD000002B00D106E0BB685B68FA1D1278101CBE
:10CDE0009847EEE7BD4604B080BDC046701A0020EB
:10CDF000781A002080B500AF80235B00181CFFF775
:10CE000035FF031E0DD080235B00181CFFF71CFFAD
:10CE10000120FFF70BFF0E4B01225A700020FFF795
:10CE2000C1FF82235B00181CFFF720FF031E0DD0FB
:10CE300082235B00181CFFF707FF0220FFF7F6FEB6
:10CE4000034B01229A700120FFF7ACFFBD4680BD65
:10CE5000681A002080B582B000AF78607B68002B34
:10CE600002D10020FFF79EFFBD4602B080BDC04644
:10CE700080B582B000AFFB1D00221A70FB1D181C8C
:10CE8000FFF7BAFE0C4B1B7801225340DBB2002B9C
:10CE900001D0FFF743FF084BDB685A1C064BDA60F2
:10CEA000054B01229A70FB1D1B78181CFFF7B0FE82
:10CEB000BD4602B080BDC046681A002080B582B071
:10CEC00000AF021CFB1D1A70064BFA1D1278111CD4
:10CED0001F220A40012191400A1C1A60BD4602B07F
:10CEE00080BDC04600E100E080B582B000AF021C0A
:10CEF000FB1D1A700649FB1D1B781A1C1F231340CB
:10CF000001229A40C0235B00CA50BD4602B080BDDA
:10CF100000E100E0B0B582B000AF021C3960FB1D3B
:10CF20001A70FB1D1B787F2B2FD92D4CFB1D1B78F6
:10CF30001A1C0F231340083B9908294AFB1D1B7834
:10CF4000181C0F230340083B9B0806339B00D31893
:10CF50005B68FA1D1278101C03220240D200101CDC
:10CF6000FF228240D2431A403B689B01FF200340CE
:10CF7000F81D0078051C03202840C00083401A4398
:10CF80008B1D9B00E3185A6026E0164CFB1D1B7896
:10CF90005BB29B081349FA1D127852B29208C03254
:10CFA00092005258F91D0978081C03210140C9005C
:10CFB000081CFF218140C94311403A689201FF20BB
:10CFC0000240F81D0078051C03202840C000824064
:10CFD0000A43C0339B001A51BD4602B0B0BDC046E3
:10CFE00000ED00E000E100E080B582B000AF021C7F
:10CFF000FB1D1A70BB1D0A1C1A70BB1D1A78FB1D85
:10D000001B785BB2181C111CFFF784FFFB1D1B78FB
:10D010005BB2181CFFF768FFFB1D1B785BB2181C86
:10D02000FFF74CFFBD4602B080BDC04680B582B060
:10D0300000AF021CBB1D1A80BB1D1B88181C00F012
:10D040001DF8031C1B68013B5A425341DBB2181CFC
:10D05000BD4602B080BDC04680B582B000AF021CA4
:10D06000BB1D1A80BB1D1B88181C00F007F8031C91
:10D0700000221A60BD4602B080BDC04680B582B0B5
:10D0800000AF021CBB1D1A80BB1D1B88034A9446BF
:10D090006344181CBD4602B080BDC046006000401D
:10D0A00080B582B000AF7860044AC1239B00D3589A
:10D0B0007A681340181CBD4602B080BD0060004075
:10D0C00080B582B000AF7860064A7B684533FF3395
:10D0D0009B009A58F8235B0113401B0A181CBD469D
:10D0E00002B080BD0060004080B582B000AF7860C3
:10D0F000074A7B684533FF339B009A58C0239B0245
:10D1000013401B0CDBB2181CBD4602B080BDC046EC
:10D110000060004080B582B000AF7860A023DB05DE
:10D12000181CBD4602B080BD80B584B000AF7860E9
:10D130000A1CFB1C1A703B1D181CFFF7EBFF031C9D
:10D14000FB607A687968FB68C131FF318900CB5890
:10D150000C491940FB68C132FF329200D1507A6805
:10D160007968FB68C131FF318900CB58F91C097817
:10D1700009041943FB68C132FF329200D150BD4609
:10D1800004B080BDFFFFFCFF80B584B000AF7860C5
:10D190003B1D181CFFF7BEFF031CFB607A68FB6891
:10D1A000C132FF329200D258C0239B0213401B0CA5
:10D1B000DBB2181CBD4604B080BDC04680B582B04D
:10D1C00000AF78607A68A223DB00D358181CBD46F4
:10D1D00002B080BD80B586B000AFF860B9607A60FB
:10D1E000A023DB053B61FB687B6113E07B699B004F
:10D1F00018229446BC446344083B1B68181CFFF784
:10D20000DDFF021C7B681A607B6804337B607B69EE
:10D2100001337B61FA68BB68D2187B699A42E5D812
:10D22000BD4606B080BDC04680B584B000AF786012
:10D2300039603B68FB607B68DB08BB607B6807226A
:10D2400013407B607B6801229A40131CF968BA681E
:10D250008A1812781340181CBD4604B080BDC04621
:10D2600080B584B000AF786039603B68FB607B6854
:10D27000DB08BB607B68072213407B60FA68BB68F1
:10D28000D318F968BA688A181278D0B27A6801217E
:10D2900091400A1CD2B2011C0A43D2B2D2B21A7017
:10D2A000BD4604B080BDC04680B582B000AF786096
:10D2B000054A20217B68D3185B181B785BB2181CC9
:10D2C000BD4602B080BDC0467C1A002080B582B049
:10D2D00000AF7860034B7A689200D358181CBD46A3
:10D2E00002B080BD7C1A002090B595B000AF00233D
:10D2F000FB640023FB604623FB18802252001A8047
:10D3000001233B640023BB6424E04623FB181B88F5
:10D31000181CFFF78BFE031E0FD03B6C181CFFF789
:10D32000BFFE031E09D04623FB181B88181CFFF7FD
:10D3300093FEFA6C3B6C1343FB643B6C5B003B64F9
:10D340004623FB184622BA18128804321A80BB6C96
:10D350000133BB64BB6C032BD7D9BE235B00181C05
:10D36000FFF764FE031E10D0BE235B00181CFFF7FE
:10D3700073FEFB6C802212061343FB640C23FB1824
:10D38000002001211A1CFFF725FFFB6C0F22134020
:10D3900030D001233B640023BB6428E03B6CFA6C73
:10D3A00013401ED0BB6C181CFFF78AFE031C7B6366
:10D3B0003323FC18BB6C181CFFF796FE031C23706C
:10D3C000BB6C181CFFF782FF031CFB62FB6A002B7F
:10D3D00007D0796B3323FB181A78FB6A081C111CE1
:10D3E00098473B6C5B003B64BB6C0133BB64BB6C1C
:10D3F000032BD3D9FB6C002B00DB20E13B23FB1874
:10D4000000221A700023BB600023FB630CE0FB6B5F
:10D410009B0050229446BC4463444C3B0122524240
:10D420001A60FB6B0133FB63FB6B002BEFD03B23DC
:10D43000FB1800221A700023BB6494E0814A40214B
:10D44000BB6CD3185B181A782B23FB181A702B238C
:10D45000FB181B78C02293437B627A4A4021BB6C45
:10D46000D3185B181B785BB2013300D178E07A6A7D
:10D470003B1D101C191CFFF7D7FE031E00D16FE0E7
:10D480002323FB182B22BA18127892091A707B6A90
:10D49000181CFFF709FF031C181CFFF717FF031CDC
:10D4A000FB61FB69002B04D12323FB181B78032BA2
:10D4B00056D12323FB181B78032B06D17A6A082345
:10D4C000FB18101C191CFFF7CBFE1B23FC187B6AF2
:10D4D000181CFFF759FE031C23707A6A0C23FB18F3
:10D4E000101C191CFFF7A0FE031C7B617B69002B3D
:10D4F00004D01B23FB181B78022B07D07B69002B61
:10D500002ED11B23FB181B78032B29D12323FB18B7
:10D510001B78032B19D11B23FB181B78022B01D17D
:10D52000032200E002221323FB181A707A6A1323E5
:10D53000FB181B78101C191CFFF7F6FD3B23FB188A
:10D540003B22BA18127801321A70FB69002B07D0FF
:10D55000796A2323FB181A78FB69081C111C984769
:10D56000BB6C0133BB64BB6C032B00D866E73B2369
:10D57000FB181B78002B5CD03A23FB1801221A7091
:10D580003B1C002001211A1CFFF724FE0023FB6333
:10D5900019E0FB6B9B0050229446BC446344503B13
:10D5A0001A68FB6B9B0050218C46BC446344443B8F
:10D5B0001B689A4204D03A23FB1800221A7005E037
:10D5C000FB6B0133FB63FB6B002BE2D03A23FB18B0
:10D5D0001B78002B04D03B23FB1800221A7028E094
:10D5E0000023FB6322E0FB6B9B0050229446BC446B
:10D5F0006344503B1A68FB6B9B0050218C46BC4433
:10D600006344443B1A60FB6B9B0050229446BC442D
:10D610006344483B1A68FB6B9B0050218C46BC441A
:10D6200063444C3B1A60FB6B0133FB63FB6B002BC9
:10D63000D9D03B23FB181B78002B00D0F7E6BD4662
:10D6400015B090BD7C1A002080B582B000AF021CDE
:10D65000FB1D1A700649FB1D1B781A1C1F23134063
:10D6600001229A40131C80228B50BD4602B080BD1F
:10D6700000E100E080B582B000AF78600A1CBB1CFE
:10D680001A80BB1C1B887A68D31800221A60BD461A
:10D6900002B080BD80B582B000AF78600A1CBB1CB0
:10D6A0001A80BB1C1B887A68D3181B685A1E9341CA
:10D6B000DBB2181CBD4602B080BDC04680B582B04A
:10D6C00000AF786039607A68C1239B003968D15017
:10D6D000BD4602B080BDC04680B582B000AF786064
:10D6E00039607A68C1239B00D3583A6813405A1EA8
:10D6F0009341DBB2181CBD4602B080BD80B582B03C
:10D7000000AF786039607A68C2239B003968D150D5
:10D71000BD4602B080BDC04680B584B000AF786021
:10D720007A689023DB00D358FB607A689023DB0093
:10D73000F968D150FB68181CBD4604B080BDC046D6
:10D7400080B582B000AF78607A68A023DB00042146
:10D75000D150BD4602B080BD80B582B000AF7860C8
:10D760007A68A023DB000021D150BD4602B080BD05
:10D7700080B584B000AFF860B9607A60FB68054995
:10D780007A685A50FB680449BA685A50BD4604B0DA
:10D7900080BDC046140500000C05000080B582B0B5
:10D7A00000AF7860796801235A4201235B42081C6C
:10D7B000111C1A1CFFF7DCFFBD4602B080BDC0463D
:10D7C00080B582B000AF78607B68034A9B58181C14
:10D7D000BD4602B080BDC0460C05000080B582B0D9
:10D7E00000AF78607B68034A9B58181CBD4602B0A6
:10D7F00080BDC0461405000080B582B000AF7860DF
:10D800007A68A123DB00D358181CBD4602B080BD46
:10D8100080B582B000AF78607A68A223DB00D3586D
:10D82000181CBD4602B080BD80B584B000AFF86062
:10D83000B9607A60FA68A123DB00B968D150FA6850
:10D84000A223DB007968D150BD4604B080BDC0463C
:10D8500080B582B000AF7860796801235A42012315
:10D860005B42081C111C1A1CFFF7DEFFBD4602B00C
:10D8700080BDC04680B582B000AF78607A68A323CF
:10D88000DB00D358DBB2181CBD4602B080BDC046D9
:10D8900080B582B000AF78600A1CFB1C1A70FB1CBC
:10D8A0001A787B6802495A50BD4602B080BDC04616
:10D8B0001C05000080B582B000AF78600A1CFB1C1C
:10D8C0001A70FB1C1B787A68D31801221A60BD46B7
:10D8D00002B080BD80B582B000AF7860081C111C1A
:10D8E000FB1C021C1A70BB1C0A1C1A70FA1CBB1C05
:10D8F00012781B781343DBB2191C7B68024A9950DB
:10D90000BD4602B080BDC0466C05000080B582B047
:10D9100000AF786039607B6802493A685A50BD466A
:10D9200002B080BD2405000080B582B000AF021CAB
:10D93000FB1D1A70FB1D1B785BB2181CFFF784FEE1
:10D94000BD4602B080BDC04680B584B000AF7860EF
:10D950007B681A0B0F23FB181A700F23FB181B7818
:10D960005BB2181CBD4604B080BDC04680B582B015
:10D9700000AF7860A023DB05181CBD4602B080BD57
:10D9800090B585B000AF78600C1C101C191CFB1CF6
:10D99000221C1A70BB1C021C1A707B1C0A1C1A70F9
:10D9A0003B1D181CFFF7E2FF031CFB607A68FB1CA1
:10D9B0001978BB1C1B785B0019437B1C1B789B00F0
:10D9C00019432023FB181B781B0219432423FB183F
:10D9D0001B781B041943FB68C132FF329200D150FF
:10D9E000BD4605B090BDC04680B584B002AF78603A
:10D9F0007A680023009300230193101C0121012267
:10DA00000023FFF7BDFFBD4602B080BD90B585B0D5
:10DA100002AF78600A1CFB1C1A707A68FB1C1C7829
:10DA20000023009300230193101C00210022231CDB
:10DA3000FFF7A6FFBD4603B090BDC04680B584B0D9
:10DA400002AF78607A680023009300230193101CD2
:10DA5000002101220023FFF793FFBD4602B080BDE5
:10DA600080B584B000AF78603B1D181CFFF77EFFC7
:10DA7000031CFB607B681A1C01239340FA68101C8E
:10DA8000191C00F003F8BD4604B080BD80B582B01B
:10DA900000AF786039607A68A123DB003968D15023
:10DAA000BD4602B080BDC04680B582B000AF786090
:10DAB00039603B681B68013309D03B681B68181C40
:10DAC000FFF7CEFF3B681B68181CFFF78DFF3B6814
:10DAD0005B68013305D03B685B68181C0021FFF7C9
:10DAE00095FF7B681A683B689B69101C191CFFF73F
:10DAF0000DFF7B6819683B685A7D3B681B7D081CDD
:10DB0000111C1A1CFFF7E6FE7B6819683B681A684F
:10DB10003B685B68081C111C1A1CFFF729FE3B6858
:10DB20001B7D012B22D13B689B68013305D03B68EC
:10DB30009B68181C0021FFF769FF3B68DB68013315
:10DB400009D03B68DB68181CFFF78AFF3B68DB687D
:10DB5000181CFFF749FF7B6819683B68DA683B6867
:10DB60009B68081C111C1A1CFFF75EFEBD4602B024
:10DB700080BDC04680B582B000AF78600A1CFB1C37
:10DB80001A707B681A688E235B00101C191CFFF743
:10DB900071FD7B681A68A2235B00101C191CFFF73B
:10DBA00069FD7B681B680A4A181C111CFFF786FD7B
:10DBB0007B681B68181CFFF7C7FE031C1A1CFB1CA4
:10DBC0001B78101C191CFFF70FFABD4602B080BD70
:10DBD0008000020080B582B000AF78607B681B686F
:10DBE000084A181C111CFFF789FD7B681B68181C6C
:10DBF000FFF7AAFE031C181CFFF796FEBD4602B0F5
:10DC000080BDC0468402020080B586B000AF786057
:10DC10007B681B68181CFFF7D3FD031C7B617B68C6
:10DC20001B68181CFFF7DAFD031C3B617B681B684F
:10DC3000181CFFF7E1FD031CFB607B681B68181CC8
:10DC4000FFF7E6FD031CBB607B681B68181CFFF731
:10DC5000A5FD7B681B68181CFFF7FAFD7B69013383
:10DC600003D07B69181CFFF7E9FE3B69013303D041
:10DC70003B69181CFFF7E2FEBB68013303D0BB68A9
:10DC8000181CFFF7DBFEFB68013303D0FB68181C90
:10DC9000FFF7D4FEBD4606B080BDC04680B582B059
:10DCA00000AF78607B681B68181CFFF749FDBD4614
:10DCB00002B080BD80B582B000AF78607B681B6821
:10DCC000181CFFF749FDBD4602B080BD80B586B087
:10DCD00000AFF860B9607A60FB681B791A1C131CEE
:10DCE000DB009B1A9B001E4A9B187B6100233B6153
:10DCF0007B69DB7E002B03D008233B613B692BE073
:10DD0000FA68BB68101C191CFFF7CEFE7B697A68A5
:10DD10005A60BB681A697B691A607B695B68002B73
:10DD200006D0BB681B7FFA68101C191CFFF722FF86
:10DD3000FB68181CFFF7B2FF7B690022DA757B696C
:10DD400000221A767B6900229A757B690122DA76B5
:10DD50007B6900229A763B69181CBD4606B080BDDF
:10DD6000C41A002080B584B000AF78607B681B794E
:10DD70001A1C131CDB009B1A9B000E4A9B18FB60AD
:10DD80007B68181CFFF796FFFB685B68002B03D0CD
:10DD90007B68181CFFF71EFF7B68181CFFF734FF19
:10DDA000FB680022DA76FB6800225A60BD4604B0A8
:10DDB00080BDC046C41A002080B584B000AF786032
:10DDC00039607A688E235B00101C191CFFF752FC27
:10DDD0003B689B683A68928A92B29A180F23FB18A4
:10DDE00012781A703B689B8A9BB201339AB23B68E7
:10DDF0009A827A680F23FB181B78101C191CFFF7F6
:10DE000047FDBD4604B080BD80B584B000AF7860EA
:10DE10007B681B791A1C131CDB009B1A9B003A4A77
:10DE20009B18BB600023FB607B681A688E235B0035
:10DE3000101C191CFFF71EFC7B681B68181C0821AE
:10DE4000FFF738FD7B681A68BB68101C191CFFF7C8
:10DE5000B3FFBB685B68002B50D124E0C0467B68F1
:10DE60001A688E235B00101C191CFFF713FC031C9F
:10DE70001A1C01235340DBB2002B06D0BB689B8ADF
:10DE80009AB280235B009A42E9D1BB689B8A9AB21E
:10DE900080235B009A4206D07B681A68BB68101C1E
:10DEA000191CFFF789FFBB689B8A9AB2BB689B7DF0
:10DEB0009BB29A42D2D3BB689B8A9AB280235B0002
:10DEC0009A4202D10F23FB6015E0C0467B681A68B6
:10DED0008E235B00101C191CFFF7DCFB031C1A1CB3
:10DEE00001235340DBB2002BF0D17B681B68181C68
:10DEF0000C21FFF7DFFCBB6800229A75FB68181C39
:10DF0000BD4604B080BDC046C41A002080B586B0AE
:10DF100000AFF860B960FB1D1A70FB681B791A1C12
:10DF2000131CDB009B1A9B000F4A9B187B61FB684C
:10DF3000181C00F01BF8031E03D011233B613B6942
:10DF40000EE07B69FA1D12789A757B69BA689A604F
:10DF50007B6900229A82FB68181CFFF755FF031C9F
:10DF6000181CBD4606B080BDC41A002080B582B022
:10DF700000AF78607B681B79191C074A0B1CDB001B
:10DF80005B1A9B00D31810339B795A1E9341DBB266
:10DF9000181CBD4602B080BDC41A002090B583B0E5
:10DFA00000AF786039603B68DB7D002B0BD17A686D
:10DFB00084235B00101C191CFFF75CFB7B68181C9A
:10DFC000FFF758FC19E07A6884235B00101C191CC9
:10DFD000FFF750FB3B68DB683A68527ED2B29C1870
:10DFE0007B68181CFFF746FC031C23703B685B7EB4
:10DFF000DBB20133DAB23B685A76BD4603B090BD5E
:10E0000080B588B000AFF8607A600B23FB180A1C5B
:10E010001A701023FB1801221A701023FB180B2210
:10E02000BA1812781A721023FB187A685A60FB68C3
:10E030005A68FB681B6810217918081C191C904746
:10E04000BD4608B080BDC04680B586B000AF7860E0
:10E050000A1CFB1C1A700823FB1800221A700823E4
:10E06000FB18FA1C12781A727B689A680823FB184E
:10E070005A607B6800229A757B685A687B681B68C7
:10E0800008217918081C191C9047BD4606B080BDB0
:10E0900080B588B000AF786039607A6880239B00D3
:10E0A000101C191CFFF718FB031E48D07A68922336
:10E0B0005B00101C191CFFF7EDFA031E3FD07A68B5
:10E0C00092235B00101C191CFFF7D4FA7A68812395
:10E0D0009B00101C191CFFF711FB3B689B7E012263
:10E0E0005340DBB2002B04D07B68181C0421FFF7DF
:10E0F000E1FB0823FB1802221A707B68181CFFF74B
:10E100000BFB021C0823FB18DA603B68DA7D08234E
:10E11000FB181A723B68DA680823FB185A603B68E0
:10E120000022DA753B6800221A763B685A683B6821
:10E130001B6808217918081C191C904762E07B684D
:10E14000181C0421FFF7C8FA031E5BD07A688423E9
:10E150005B00101C191CFFF79DFA031E52D07A6851
:10E160003B68101C191CFFF719FF3B68DA7D3B6800
:10E170005B7EDBB29A4245D13B681B7E002B20D0F0
:10E180003B68DB68FB611B23FB183A68527E1A7000
:10E190003B681A7E3B68DA753B681A693B68DA604F
:10E1A0003B6800221A763B6800225A7639681B23A6
:10E1B000FB181A78FB69081C111C1A1CFFF720FFBA
:10E1C00020E03B689B7E01225340DBB2002B04D051
:10E1D0007B68181C0421FFF76DFB7A6881239B0084
:10E1E000101C191CFFF78AFA3B680022DA753B689D
:10E1F0005B7EDAB23B68DB683968081C111C1A1CAC
:10E20000FFF7FEFE7A688E235B00101C191CFFF7D7
:10E2100041FA031E20D03B689B8A9AB23B689B7DE3
:10E220009BB29A4206D27A683B68101C191CFFF711
:10E23000C3FD11E07A688E235B00101C191CFFF7E8
:10E2400019FA3B689B7D002B06D03B689B7D3A68A2
:10E25000101C191CFFF7F8FE7A68A2235B00101C43
:10E26000191CFFF717FA031E21D07A68A2235B005E
:10E27000101C191CFFF7FEF93B689B7E002B04D095
:10E280007B68181C0021FFF715FB3B68DB7D002B2A
:10E290000DD03B680022DA753B685B7EDAB23B68E2
:10E2A000DB683968081C111C1A1CFFF7A9FEBD4663
:10E2B00008B080BD80B500AF034A044B101C191C88
:10E2C000FFF7E6FEBD4680BD00200040C41A0020D6
:10E2D00090B585B000AF021CFB1D1A700023FB60D7
:10E2E0000023BB60D64B1B78002B04D0D44B0022FC
:10E2F0001A7000F075FBFB1D1B78172B00D9ABE1E2
:10E300009A00D04BD3181B689F4600F069FBCE4B98
:10E31000FA1D12781A70A0E1002000F019FB031E0C
:10E320000DD0002000F04AFBFB1D1B78022B02D110
:10E33000E123DB0001E0FA231B01BB600BE00020BE
:10E3400000F02AFBFB1D1B78022B01D1C82301E042
:10E35000C8235B00BB60BC4BFA1D12781A70BB4C23
:10E36000BB68181C642101F061FF031C1A1CB84B28
:10E370001B685343201C191C0022FEF777FB031C6B
:10E38000FB606AE1002000F0E3FA031E0DD00020DC
:10E3900000F014FBFB1D1B78032B02D1C8239B004C
:10E3A00001E0FA231B01BB600BE0002000F0F4FA4F
:10E3B000FB1D1B78032B01D1C82301E0C8235B00A0
:10E3C000BB60A14BFA1D12781A70A04CBB68181CD8
:10E3D000642101F02BFF031C1A1C9D4B1B68534347
:10E3E000201C191C0022FEF741FB031CFB6034E1DA
:10E3F000002000F0ADFA031E06D0002000F0DEFA87
:10E40000FA231B01BB6005E0002000F0C5FAC82319
:10E410005B00BB608C4BFA1D12781A708B4CBB688A
:10E42000181C642101F002FF031C1A1C884B1B6896
:10E430005343201C191C0022FEF718FB031CFB6031
:10E440000BE1002000F084FA031E0CD0002000F045
:10E45000B5FAFB1D1B78052B01D1C82301E0FA2377
:10E460001B01BB600BE0002000F096FAFB1D1B783F
:10E47000052B01D1C82301E0C8235B00BB60724BB0
:10E48000FA1D12781A70714CBB68181C642101F0D7
:10E49000CDFE031C1A1C6E4B1B685343201C191C19
:10E4A0000022FEF7E3FA031CFB60D6E0002000F038
:10E4B000BFFA654BFA1D12781A70644A644B1B68E8
:10E4C000101C191C0022FEF7D1FA031CFB60C4E0EB
:10E4D000002000F061FA5C4BFA1D12781A70BCE063
:10E4E000574B01221A70012000F0A2FA574A584BEC
:10E4F0001B68101C191C0022FEF7B8FA031CFB60F5
:10E50000ABE04F4B01221A70012000F091FA4F4905
:10E510004F4B1A68131C9B009B18081C191C0022E7
:10E52000FEF7A4FA031CFB6097E0454B01221A702A
:10E53000012000F07DFA454A454B1B68101C191C50
:10E540000022FEF793FA031CFB6086E03C4B01229D
:10E550001A70012000F06CFA3C493D4B1A68131CFC
:10E560009B009B18081C191C0022FEF77FFA031C55
:10E57000FB6072E000F048FA334BFA1D12781A7013
:10E580006BE0344B181CFEF7A5FA031CFB60FB1D67
:10E590001B781122D31ABB60BB68002B1DD0FB680F
:10E5A000002B1AD1BB68012B13D92A4CBB68C82297
:10E5B0005343181C642101F039FE031C1A1C244B20
:10E5C0001B685343201C191C0022FEF74FFA031C42
:10E5D000FB60022000F0E0F93FE0022000F0EEF9DD
:10E5E0003BE000F0FDF9184BFA1D12781A7034E088
:10E5F00000F0F6F9002000F0CFF9134BFA1D127865
:10E600001A702AE000F0ECF9012000F0C5F90E4B79
:10E61000FA1D12781A7020E000F0E2F9002000F0F4
:10E62000BBF9012000F0B8F9074BFA1D12781A70F7
:10E6300013E000F0E9F9044BFA1D12781A700CE0AF
:10E64000E11A0020480C0200E01A0020EC1A002019
:10E65000E41A00200C1B0020C046FB68181CBD46B5
:10E6600005B090BD80B582B000AF7860064B1B68E6
:10E670000122134004D0054B1B78181CFFF728FE1D
:10E68000BD4602B080BDC046E81A0020E01A002056
:10E6900080B582B000AF7860022000F0C9F9BD46B5
:10E6A00002B080BD80B584B000AF021CFB1D1A70A3
:10E6B0000023FB60084B1B680122134006D0FB1DA2
:10E6C0001B78181CFFF704FE031CFB60FB68181C7A
:10E6D000BD4604B080BDC046E81A002080B586B0B3
:10E6E00000AFF860B9607A6000237B61144BBA68B0
:10E6F0001A60144BFA681A60FB680122134001D0BB
:10E7000000F0A6F97B69002B08D10F4A0F4B101CB3
:10E7100000211A1CFEF774F9031C7B617B69002B36
:10E7200008D10B4A0B4B101C01211A1CFEF768F98B
:10E73000031C7B617B69181CBD4606B080BDC046CA
:10E74000E41A0020E81A0020400C020065E60100EF
:10E75000440C020091E6010080B582B000AF786001
:10E76000A023DB05181CBD4602B080BD90B585B066
:10E7700000AF78600C1C101C191CFB1C221C1A70AA
:10E78000BB1C021C1A707B1C0A1C1A703B1D181C37
:10E79000FFF7E2FF031CFB607A68FB1C1978BB1CC7
:10E7A0001B785B0019437B1C1B789B0019432023BB
:10E7B000FB181B781B0219432423FB181B781B042E
:10E7C0001943FB68C132FF329200D150BD4605B0FB
:10E7D00090BDC04680B584B002AF78607A680023EF
:10E7E000009300230193101C012101220023FFF755
:10E7F000BDFFBD4602B080BD80B584B000AF78607B
:10E800003B1D181CFFF7A8FF031CFB607B681A1C4C
:10E8100001239340FA68101C191C00F07DF8BD46D6
:10E8200004B080BD80B584B000AF78603B1D181C7B
:10E83000FFF792FF031CFB607B681A1C01239340C7
:10E84000FA68101C191C00F075F8BD4604B080BDB4
:10E8500080B584B000AF78603B1D181CFFF77CFFCB
:10E86000031CFB60FB680D4A9B58BB60BB68DB4325
:10E870007A68111C01228A401A40111CFA68A123EF
:10E88000DB00D1507B681A1C01239340BA681A4000
:10E89000FB6803495A50BD4604B080BD0405000022
:10E8A0000C05000080B582B000AF786039603B682D
:10E8B000002B04D17B68181CFFF7B4FF03E07B68D2
:10E8C000181CFFF799FFBD4602B080BD80B584B02B
:10E8D00000AF78603B1D181CFFF73EFF031CFB6078
:10E8E000FB68181C00F00AF8021C7B68DA40131C55
:10E8F00001221340181CBD4604B080BD80B582B013
:10E9000000AF78607B68034A9B58181CBD4602B074
:10E9100080BDC0460405000080B582B000AF7860BD
:10E9200039607A68A123DB003968D150BD4602B056
:10E9300080BDC04680B582B000AF786039607B682A
:10E9400002493A685A50BD4602B080BD0C0500002D
:10E9500080B584B000AF78600E4A7B68D3181B780E
:10E96000181CFFF7B3FF021C0F23FB18511E8A412E
:10E970001A700F23FB181B785A1E9341DBB2012239
:10E980005340DBB21A1C01231340DBB2181CBD46F6
:10E9900004B080BDA80C020080B582B000AF7860E2
:10E9A000054A7B68D3181B78181C0021FFF77AFFF3
:10E9B000BD4602B080BDC046A80C020080B582B042
:10E9C00000AF7860054A7B68D3181B78181C0121BA
:10E9D000FFF768FFBD4602B080BDC046A80C02002C
:10E9E00080B582B000AF00237B6006E07B68181C16
:10E9F000FFF7E4FF7B6801337B607B68022BF5D96E
:10EA0000BD4602B080BDC04680B582B000AF0023D5
:10EA10007B6006E07B68181CFFF7BEFF7B68013354
:10EA20007B607B68022BF5D9BD4602B080BDC04635
:10EA300080B582B000AF7860044A7B68D3181B7839
:10EA4000181CFFF705FFBD4602B080BDA80C0200F0
:10EA500080B582B000AF00237B6009E0084A7B6884
:10EA6000D3181B78181CFFF7B5FE7B6801337B6059
:10EA70007B68022BF2D9FFF7B3FFBD4602B080BD21
:10EA8000A80C020073DF7047181CC04648DF7047AF
:10EA9000181CC04680B584B000AF78600C4BFB609A
:10EAA0007B68002B11D00B4B1A68F9687B68C04655
:10EAB000C046C046C046C046C046C046C0468A4260
:10EAC00000D0C046013BF2D17B60BD4604B080BDA2
:10EAD0000024F400F418002080B582B000AF786004
:10EAE0007B68FA2292005343181CFFF7D3FFBD4600
:10EAF00002B080BD80B596B000AF5723FB1804224A
:10EB00001A703B1D4C221A803B1D214A9A603B1D06
:10EB100017229A801023FB18181C00213C22FCF7B6
:10EB200077FB1023FB1800221A701023FB185722C2
:10EB3000BA181278DA701023FB183A1D5A621023A3
:10EB4000FB18181C002100F021FF031C3B653B6DE6
:10EB5000FB64FB6C002B03D0FB6C181CFDF7B8F8B2
:10EB60000C4B181C00211822FCF752FB094B032206
:10EB70001A70084B00225A60064B00221A72054B8D
:10EB8000A0221A82034B00225A82BD4616B080BDD5
:10EB9000DC1800202C1B002080B584B000AF104B87
:10EBA000181CFFF76FFF031CFB60FB68BB60BB68B2
:10EBB000002B03D0BB68181CFDF78AF80220FFF772
:10EBC00071FD031CFB60FB687B607B68002B03D03E
:10EBD0007B68181CFDF77CF8BD4604B080BDC046BC
:10EBE0002C1B002080B58CB000AF1823FA18204BE6
:10EBF000111C1A1C0423081C111C1A1C01F0A8FB70
:10EC00001823FA181B4B101C191C4822002301F072
:10EC1000D3F9031CFB62FB6ABB62BB6A002B03D007
:10EC2000BB6A181CFDF754F83B1D002000211A1C7C
:10EC300001F040FA031C7B627B6A3B623B6A002B5B
:10EC400003D03B6A181CFDF743F83B1D181C01F06C
:10EC500087FA031C7B627B6AFB61FB69002B03D094
:10EC6000FB69181CFDF734F8BD460CB080BDC046EA
:10EC7000AC0C0200441B002080B582B000AFFFF74F
:10EC800005FF031C7B607B683B603B68002B03D067
:10EC90003B68181CFDF71CF8BD4602B080BDC0469D
:10ECA00080B586B000AF0020FCF786FF031C3B61F7
:10ECB0003B69FB60FB68002B03D0FB68181CFDF769
:10ECC00007F8274B0320191CFCF7D4FFFFF78AFF36
:10ECD000244B002005211A1C0023FDF735FE031CE0
:10ECE000BB60BB687B607B68002B03D07B68181C13
:10ECF000FCF7EEFF1C4B0120191C0022FFF7EEFC75
:10ED0000031C3B613B693B603B68002B03D03B68C5
:10ED1000181CFCF7DDFF00237B6111E00020FFF7EA
:10ED200017FE031E03D00020FFF748FE02E000207C
:10ED3000FFF732FE6420FFF7CFFE7B6901337B6172
:10ED40007B69052BEADDFFF7D5FE084B0320191C74
:10ED5000FCF790FFFFF720FFFFF78EFFFCE7C046B0
:10ED6000B00C02008C1B0020CD0C0000CC0C02006B
:10ED700071DF7047181CC04672DF7047181CC04610
:10ED800079DF7047181CC0467DDF7047181CC046ED
:10ED900065DF7047181CC04680B582B000AF021C0A
:10EDA0003960BB1D1A80BB1D1B88DAB23B681A7024
:10EDB0003B680133BA1D1288120A92B2D2B21A709D
:10EDC0000223181CBD4602B080BDC04680B588B085
:10EDD00000AFF860B960BB1D1A80BB681B8809339F
:10EDE0001A1CBB1D1B889A4201D90C2353E0142323
:10EDF000FB18181CFFF7BCFF031CFB61FB69002B11
:10EE000001D0FB6947E0BB681B881A1CFB689B1894
:10EE100008221A70BB681B8801339AB2BB681A803B
:10EE2000BB681B881A1CFB689B181B221A70BB68E6
:10EE30001B8801339AB2BB681A80BB681B881A1CF6
:10EE4000FB689A181423FB180133101C191C0622A6
:10EE500001F07EFABB681B8806339AB2BB681A8041
:10EE60001423FB181B78002B07D1BB681B881A1CC6
:10EE7000FB689B1800221A7006E0BB681B881A1CEE
:10EE8000FB689B1801221A70BB681B8801339AB279
:10EE9000BB681A800023181CBD4608B080BDC04660
:10EEA00080B588B000AFF860B9607A601A1CBB1CEE
:10EEB0001A80FB681B78012B05D1FB685B78002B5F
:10EEC00001D1072399E07B681B889A1CBB1C1B8817
:10EED0009A420ED8FB681B78012B0CD17B681B88EB
:10EEE0001A1CFB685B78D3189A1CBB1C1B889A42BF
:10EEF00001D90C2381E07B681B88BA1C1288D31AC5
:10EF00009AB21C23FB18023A1A801623FB181C2203
:10EF1000BA1812881A807B681B880233BA68D21824
:10EF20001623FB18101C191CFFF72EFF031CBB61D6
:10EF3000BB69002B01D0BB695FE0FB681B78022B2B
:10EF40000CD11623FB181B881C22BA1812889A426F
:10EF500004D31F23FB1809221A701CE01F23FB187F
:10EF600008221A70FB681B78012B0ED1FB685B78B6
:10EF70009BB21C22BA1812889A4206D3FB685B78AF
:10EF80009AB21623FB181A8005E01623FB181C22E0
:10EF9000BA1812881A801623FB181B88FE2B01D979
:10EFA0000C232AE07B681B881A1CBB689B1816225E
:10EFB000BA181288D2B20132D2B21A707B681B889A
:10EFC00001339AB27B681A807B681B881A1CBB6865
:10EFD0009B181F22BA1812781A707B681B8801339D
:10EFE0009AB27B681A807B681A881623FB181B88E4
:10EFF000D3189AB27B681A800023181CBD4608B04B
:10F0000080BDC04680B586B000AFF860B960BB1D5A
:10F010001A80BB681B881A1DBB1D1B889A4201D928
:10F020000C233BE01223FB18181CFFF7A9FE031C5E
:10F030007B617B69002B01D07B692FE0BB681B885B
:10F040001A1CFB689B1803221A70BB681B880133CB
:10F050009AB2BB681A80BB681B881A1CFB689B1895
:10F0600019221A70BB681B8801339AB2BB681A80D8
:10F070001223FB181A88BB681B88191CFB685B18D5
:10F08000101C191CFFF788FE031C191CBB681A888A
:10F090008BB2D3189AB2BB681A800023181CBD46E5
:10F0A00006B080BD80B584B000AFB9607A60191C2D
:10F0B0000F23FB18021C1A700C23FB180A1C1A8061
:10F0C0007B681B88DA1C0C23FB181B889A4201D929
:10F0D0000C2329E07B681B881A1CBB689B18022242
:10F0E0001A707B681B8801339AB27B681A807B6830
:10F0F0001B881A1CBB689B1801221A707B681B882E
:10F1000001339AB27B681A807B681B881A1CBB6823
:10F110009B180F22BA1812781A707B681B8801336B
:10F120009AB27B681A800023181CBD4604B080BDCB
:10F1300080B584B000AFB9607A60191C0F23FB184A
:10F14000021C1A700C23FB180A1C1A807B681B888F
:10F15000DA1C0C23FB181B889A4201D90C2329E0E6
:10F160007B681B881A1CBB689B1802221A707B687C
:10F170001B8801339AB27B681A807B681B881A1C33
:10F18000BB689B180A221A707B681B8801339AB2ED
:10F190007B681A807B681B881A1CBB689B180F222F
:10F1A000BA1812781A707B681B8801339AB27B6890
:10F1B0001A800023181CBD4604B080BD80B58AB0FB
:10F1C00000AFF860081C111C7B600B23FB18021CAD
:10F1D0001A700A23FB180A1C1A702323FB1800223A
:10F1E0001A702023FB183A6B12881A8000237B6266
:10F1F00086E0FB685A687B6A9B00D3181022BA1815
:10F20000111C1A1C0423081C111C1A1C01F0A0F864
:10F210001023FA181723FB18101C191C0022FFF7E3
:10F22000B7FD031CFB61FB69002B01D0FB6990E07B
:10F230001723FB181B780A22BA1812789A425CD15D
:10F240002323FB181B78002B01D0002200E00222B0
:10F250001B23FB181A703B6B1B881A1C1723FB1807
:10F260001B78D2181B23FB181B78D2183423FB18E9
:10F270001B889A4201DD0C236BE02323FB181B78CB
:10F2800001225340DBB2002B18D03B6B1B880133AB
:10F290009AB23B6B1A803B6B1B881A1C7B689B18CD
:10F2A0000B22BA1812781A703B6B1B8801339AB282
:10F2B0003B6B1A802323FB1801221A703B6B1B88BF
:10F2C0001A1C7B689B181022B9181722BA18081C40
:10F2D000111C1A1CFFF75CFD031CFB61FB69002B72
:10F2E00001D0FB6935E03B6B1A881723FB181B78AC
:10F2F0009BB2D3189AB23B6B1A807B6A01337B6254
:10F30000FB681B881A1E7B6A9A4200DD71E7232383
:10F31000FB181B78002B1BD03B6B1A882023FB1893
:10F320001B88D31A9AB21823FB18013A1A801823A3
:10F33000FB181B88FF2B01D90C230AE02023FB18A4
:10F340001B887A68D3181822BA181288D2B21A7099
:10F350000023181CBD460AB080BDC04690B589B0D8
:10F3600002AFF860081C111C7B600B23FB18021C09
:10F370001A700A23FB180A1C1A70F9680B23FB1871
:10F380001A787C68BB6A00932C23FB181B880193B6
:10F39000081C111C0222231CFFF710FF031C7B61B9
:10F3A0007B69002B01D07B6918E0F9680A23FB1800
:10F3B0001A787C68BB6A00932C23FB181B88019386
:10F3C000081C111C1022231CFFF7F8FE031C7B6194
:10F3D0007B69002B01D07B6900E00023181CBD462F
:10F3E00007B090BD80B582B000AF78607B681B88A5
:10F3F000052B0AD97B681A88C8231B019A4206D9B3
:10F400007B681B88164A934201D0072323E07B6860
:10F410005B88052B0AD97B685A88C8231B019A424E
:10F4200006D97B685B880E4A934201D0072312E01D
:10F430007B681B880A4A93420CD07B685B88084A29
:10F44000934207D07B681A887B685B889A4201D90F
:10F45000072300E00023181CBD4602B080BDC04653
:10F46000FFFF000080B586B000AFF860B9607A6039
:10F470001A1CBB1C1A807B681B889A1DBB1C1B882E
:10F480009A4201D90C234DE0FB68181CFFF7AAFF34
:10F49000031C7B617B69002B01D07B6942E07B68A8
:10F4A0001B881A1CBB689B1805221A707B681B8876
:10F4B00001339AB27B681A807B681B881A1CBB6870
:10F4C0009B1812221A707B681B8801339AB27B68E2
:10F4D0001A80FB681A887B681B88191CBB685B183C
:10F4E000101C191CFFF758FC031C191C7B681A8898
:10F4F0008BB2D3189AB27B681A80FB685A887B68F3
:10F500001B88191CBB685B18101C191CFFF744FCF6
:10F51000031C191C7B681A888BB2D3189AB27B68BB
:10F520001A800023181CBD4606B080BD80B586B089
:10F5300000AFF860B9607A601A1CBB1C1A80FB68C7
:10F540009B8802337B617B681B881A1C7B69D318FC
:10F550009A1CBB1C1B889A4201D90C2356E07B697C
:10F56000FE2B01D90C2351E07B681B881A1CBB6859
:10F570009B187A69D2B20132D2B21A707B681B88AA
:10F5800001339AB27B681A807B681B881A1CBB689F
:10F590009B18FF221A707B681B8801339AB27B6824
:10F5A0001A80FB681A887B681B88191CBB685B186B
:10F5B000101C191CFFF7F0FB031C191C7B681A8830
:10F5C0008BB2D3189AB27B681A80FB689B88002B99
:10F5D0001BD0FB689B68002B01D1072316E07B68DA
:10F5E0001B881A1CBB689918FB689A68FB689B8883
:10F5F000081C111C1A1C00F0ABFE7B681A88FB6803
:10F600009B88D3189AB27B681A800023181CBD46C9
:10F6100006B080BD80B588B000AFF860B9607A6090
:10F620001A1CBB1C1A80FB689B6A002B01D10723A4
:10F630007AE01F23FB1800221A706BE0FB68996ABE
:10F640001F23FB181A78131C5B009B189B00CB1818
:10F65000BB61BB699B8802337B617B69FE2B01D94F
:10F660000C2361E07B681B881A1CBB689B187A69B5
:10F67000D2B20132D2B21A707B681B8801339AB2BF
:10F680007B681A807B681B881A1CBB689B18162233
:10F690001A707B681B8801339AB27B681A80BB6939
:10F6A0001A887B681B88191CBB685B18101C191C06
:10F6B000FFF772FB031C191C7B681A888BB2D318E6
:10F6C0009AB27B681A80BB699B88002B1BD0BB69F0
:10F6D0009B68002B01D1072326E07B681B881A1C3E
:10F6E000BB689918BB699A68BB699B88081C111C88
:10F6F0001A1C00F02DFE7B681A88BB699B88D31802
:10F700009AB27B681A801F23FB181A781F23FB18F4
:10F7100001321A70FB682C229B5C1F22BA181278E7
:10F720009A4200D28AE70023181CBD4608B080BD6B
:10F7300090B589B002AFF860B9607A6000237B6150
:10F740001223FB187A6812881A807B6800221A80BC
:10F75000FB682D229B5C002B10D0B9687A681223BD
:10F76000FB181B88081C111C1A1CFFF72FFB031C1D
:10F770007B617B69002B01D07B69E1E0FB689B78B2
:10F78000002B10D0B9687A681223FB181B88081C5C
:10F79000111C1A1CFFF736FC031C7B617B69002BD4
:10F7A00001D07B69CCE0FB68DB78002B11D0FB68D3
:10F7B000DB78DBB258B2B9687A681223FB181B8871
:10F7C000FFF770FC031C7B617B69002B01D07B6918
:10F7D000B6E0FB685B68002B11D0FB685B681B78A8
:10F7E00058B2B9687A681223FB181B88FFF7A0FC8F
:10F7F000031C7B617B69002B01D07B69A0E0FB6867
:10F800001B89002B16D0FB6808331A1CBC687B6868
:10F8100000931223FB181B880193101C022106225F
:10F82000231CFFF79BFD031C7B617B69002B01D030
:10F830007B6985E0FB681B8A002B16D0FB681033C0
:10F840001A1CBC687B6800931223FB181B88019369
:10F85000101C03210722231CFFF780FD031C7B6182
:10F860007B69002B01D07B696AE0FB681B8B002B56
:10F8700016D0FB6818331A1CBC687B6800931223EF
:10F88000FB181B880193101C14211522231CFFF761
:10F8900065FD031C7B617B69002B01D07B694FE018
:10F8A000FB681B6A002B0FD0FB68186AB9687A687E
:10F8B0001223FB181B88FFF7D5FD031C7B617B69B6
:10F8C000002B01D07B693BE0FB685B6A002B0FD00B
:10F8D000FB68586AB9687A681223FB181B88FFF71F
:10F8E00025FE031C7B617B69002B01D07B6927E02F
:10F8F000FB682C229B5C002B0ED0F868B9687A68F4
:10F900001223FB181B88FFF785FE031C7B617B69B4
:10F91000002B01D07B6913E0FB681B78002B0ED015
:10F92000F868B9687A681223FB181B88FFF7B8FAE1
:10F93000031C7B617B69002B01D07B6900E07B6944
:10F94000181CBD4607B090BD80B582B000AF78608E
:10F950007B68DB781A1C0423134001D1072300E0E5
:10F960000023181CBD4602B080BDC04680B582B0E1
:10F9700000AF78607B68DB78002B01D0072300E0C4
:10F980000023181CBD4602B080BDC04680B596B0AD
:10F9900000AF786039604A23FB181F221A80482381
:10F9A000FB181F221A807B68002B1FD07B68181C55
:10F9B000FFF7CAFF031CFB64FB6C002B01D0FB6C40
:10F9C00050E079682823FA184A23FB18081C111CF8
:10F9D0001A1CFFF7ADFE031CFB64FB6C002B01D06F
:10F9E000FB6C3FE02823FB187B6505E000237B656B
:10F9F0004A23FB1800221A803B68002B1FD03B686B
:10FA0000181CFFF7B3FF031CFB64FB6C002B01D039
:10FA1000FB6C27E039680823FA184823FB18081CF8
:10FA2000111C1A1CFFF784FE031CFB64FB6C002BEB
:10FA300001D0FB6C16E00823FB183B6505E00023B2
:10FA40003B654823FB1800221A804A23FB181B88B9
:10FA5000D9B24823FB181B88DBB2786D3A6DFFF7EB
:10FA60008BF9031C181CBD4616B080BD80B500AFD5
:10FA700000F034F8031E06D0124B134A1A60134BE1
:10FA8000802212021A6000F069F8031E05D080235C
:10FA9000DA05C123DB000121D15000F085F8031EF7
:10FAA0000ED00B4B1B68012B07D0094B094A1A607B
:10FAB000C046074B1B68012BFBD1074BC0221A60C5
:10FAC000BD4680BD04050040DFFF07C0186C004044
:10FAD00000EC06407593000014EC064080B500AFC2
:10FAE0001A4B1B68FF221340012B2AD1184B1B68AD
:10FAF0000F22134025D1174B1B68F022134006D16B
:10FB0000154B1B68F022134001D101231AE0114B61
:10FB10001B68F0221340102B06D10F4B1B68F022FC
:10FB2000134001D101230DE00A4B1B68F022134062
:10FB3000302B06D1084B1B68F022134001D1012362
:10FB400000E00023181CBD4680BDC046E00F00F059
:10FB5000E40F00F0E80F00F0EC0F00F080B500AF0C
:10FB60000D4B1B68FF221340012B11D10B4B1B685F
:10FB70000F2213400CD10A4B1B68F0221340402B7C
:10FB800006D1084B1B68F022134001D1012300E08D
:10FB90000023181CBD4680BDE00F00F0E40F00F00C
:10FBA000E80F00F0EC0F00F080B500AF144B1B68BD
:10FBB000FF221340012B1ED1124B1B680F22134052
:10FBC00019D1114B1B68F0221340A02B06D10F4B0B
:10FBD0001B68F022134001D101230DE00A4B1B6882
:10FBE000F0221340D02B06D1084B1B68F0221340A3
:10FBF00001D1012300E00023181CBD4680BDC04692
:10FC0000E00F00F0E40F00F0E80F00F0EC0F00F060
:10FC100080B582B000AF021CFB1D1A70064BFA1DA6
:10FC20001278111C1F220A40012191400A1C1A60FF
:10FC3000BD4602B080BDC04600E100E080B582B0A4
:10FC400000AF021CFB1D1A700649FB1D1B781A1C15
:10FC50001F23134001229A40131C80228B50BD4663
:10FC600002B080BD00E100E080B582B000AF021CB0
:10FC7000FB1D1A70FB1D1B787F2B16D9164AFB1D26
:10FC80001B78191C0F230B40083B9B0806339B0075
:10FC9000D3185B68FA1D1278111C03220A40D200A7
:10FCA000D340FF2213409B0911E00C4AFB1D1B7837
:10FCB0005BB29B08C0339B009B58FA1D1278111C45
:10FCC00003220A40D200D340FF2213409B09181C94
:10FCD000BD4602B080BDC04600ED00E000E100E09E
:10FCE00052DF7047181CC04610DF7047181CC04612
:10FCF00080B582B000AF78607B68032213405A421F
:10FD00005341DBB2181CBD4602B080BD60DF7047B6
:10FD1000181CC04661DF7047181CC04680B582B011
:10FD200000AF021CFB1D1A70FB1D1B785BB21F2B62
:10FD30000BDCFB1D1B785BB2064ADA40131C012268
:10FD400013405A1E9341DBB200E00123181CBD464C
:10FD500002B080BDFC06FFBC80B582B000AF786009
:10FD60007B68032B01D9002308E07B68002B02D0BD
:10FD70007B68022B01D1002300E00123181CBD4643
:10FD800002B080BD80B582B000AF021CFB1D1A70AE
:10FD9000FB1D1B785BB2181CFFF7C0FF031E01D1CF
:10FDA0001B4B30E0FB1D1B785BB2181CFFF75CFFA0
:10FDB000031C181CFFF7D0FF031E01D1154B22E0D6
:10FDC000154B5B68002B17D0FB1D1B785BB25A09E3
:10FDD000FB1D1B785BB259090F4B8900CB58F91DED
:10FDE0000978081C1F21014001208840011C19438B
:10FDF000094B9200D15005E0FB1D1B785BB2181C2B
:10FE0000FFF706FF0023181CBD4602B080BDC046A8
:10FE10000120000002200000281C002080B582B0D4
:10FE200000AF021CFB1D1A700B4AFB1D1B785BB256
:10FE30005B099B009A58FB1D1B78191C1F230B4064
:10FE4000DA40131C012213405A1E9341DBB2181CE6
:10FE5000BD4602B080BDC04600E100E080B584B080
:10FE600000AFF860B9607A60F968BA687B68081C0E
:10FE7000111C1A1CFBF75AFFBD4604B080BDC046DA
:10FE800080B584B000AF414B1B78DBB201225340F8
:10FE9000DBB2002B00D076E00F23FB1800221A7093
:10FEA0003B4B1A680E23FB1851424A411A700F232C
:10FEB000FB181B7801225340DBB2002B27D0354BB7
:10FEC0001B78DBB2002B5ED13B1D181CFFF708FF2F
:10FED000031CBB60BB68052B04D10F23FB18012258
:10FEE0001A7014E0BB68002B04D0BB68181CFBF729
:10FEF000EFFE0CE07B68181CFCF7ACFF264B1B6880
:10FF0000002B04D0244B1B687A68101C98470E23E2
:10FF1000FB181B7801225340DBB2002B27D01D4B6E
:10FF20001B78DBB2002B2ED11C4B1A88BB1C1A800D
:10FF30001B4B1A68BB1C101C191CFFF7EBFE031CA3
:10FF4000BB60BB68052B04D10E23FB1801221A707D
:10FF50000DE0BB68002B04D0BB68181CFBF7B8FE93
:10FF600005E00B4B1A680E4B1B68181C90470F23BB
:10FF7000FB181B78002B05D00E23FB181B78002BD9
:10FF800000D000E093E7BD4604B080BD081C00200F
:10FF9000141C0020091C0020181C0020101C00202C
:10FFA0000C1C002080B500AF024B1B78DBB2181C84
:10FFB000BD4680BD081C002090B587B000AFF8603A
:10FFC000B9603B60BB1D1A80BB68002B01D10723C1
:10FFD00043E0BB68181CFFF78BFE031C1A1C0123AF
:10FFE0005340DBB2002B01D0072336E01D4BBA682B
:10FFF0001A601D4BBA1D12881A801C4B3A681A6091
:020000022000DC
:100000001723FC180020FFF709FF031C2370172398
:10001000FB181B78002B02D00020FFF70FFEFA68B8
:10002000134B101C191CFFF75FFE031C3B613B695F
:10003000002B09D01723FB181B78002B02D00020BF
:10004000FFF7E6FD3B6908E00A4B01221A70FCF756
:100050000FFF1620FFF796FE031C181CBD4607B0C5
:1000600090BDC0460C1C0020101C0020041C002069
:100070005DFE0100081C002080B582B000AF0C4B73
:100080001B68002B0FD00A4B1B689847031C7B6032
:100090007B683B603B68002B04D03B68181CFBF777
:1000A00017FE02E001E0FFF7EBFEBD4602B080BDA7
:1000B000041C002080B582B000AF3A60FB1D021C1A
:1000C0001A70BB1D0A1C1A703B68181C00211422F0
:1000D000FBF79EF83B6801221A803B6800221A61F8
:1000E0003B681A7B01218A431A733B68BA1D127858
:1000F0001A723B68FA1D12785A723B685B7A002BC1
:1001000002D03B6801229A720023181CBD4602B03F
:1001100080BDC04680B582B000AF80235B059B6B7D
:100120007B607B683B6080235B055A6B3B68534375
:100130003B603B68181CBD4602B080BD80B582B0F4
:1001400000AF80239B057B60FFF7E4FF021C7B6808
:100150009B187B607B68181CBD4602B080BDC04602
:1001600080B586B000AF7860194BFB60FB683B61DF
:100170007A681023FB18101C191CFFF7C7FD031C1D
:100180007B613A69FB689A4212D03B69114A0220AE
:10019000111C1A1CFBF782FDFFF7D0FF021C3B6904
:1001A000D31A0D4A0220111C1A1CFBF777FD09E037
:1001B0007B69002B06D0094A7B690120111C1A1C9F
:1001C000FBF76CFD7B69181CBD4606B080BDC046C0
:1001D000701800206C0D0200B80D0200F40D020032
:1001E00003210A4802680A430260094802680A4378
:1001F00002600849084A094B9B1A03DD043BC858B2
:10020000D050FBDCFFF732FCFAF78AFF24050040F0
:1002100054050040640F02007018002008190020E7
:10022000FEE7FEE7FEE7FEE7FEE7FEE70022430803
:100230008B4274D303098B425FD3030A8B4244D3AE
:10024000030B8B4228D3030C8B420DD3FF220902F0
:1002500012BA030C8B4202D31212090265D0030BAF
:100260008B4219D300E0090AC30B8B4201D3CB03A5
:10027000C01A5241830B8B4201D38B03C01A5241E7
:10028000430B8B4201D34B03C01A5241030B8B42E9
:1002900001D30B03C01A5241C30A8B4201D3CB02D4
:1002A000C01A5241830A8B4201D38B02C01A5241B9
:1002B000430A8B4201D34B02C01A5241030A8B42BC
:1002C00001D30B02C01A5241CDD2C3098B4201D3D4
:1002D000CB01C01A524183098B4201D38B01C01A52
:1002E000524143098B4201D34B01C01A52410309C9
:1002F0008B4201D30B01C01A5241C3088B4201D378
:10030000CB00C01A524183088B4201D38B00C01A24
:10031000524143088B4201D34B00C01A5241411A4B
:1003200000D20146524110467047FFE701B5002058
:1003300000F00CF802BDC0460029F7D003B5FFF766
:1003400075FF0EBC4243891A1847C0467047C04625
:10035000002310B5934203D0CC5CC4540133F9E7B9
:1003600010BD00000CB430B5174B9DB01D680029BE
:1003700004DA8B2301202B6040421FE0822302AA73
:100380009B009381002302901061994200D04B1E84
:100390009360536101235B42D3810C1C21AB111C80
:1003A000281C209A019300F079F8431C01DA8B2372
:1003B0002B60002C02D00023029A13701DB030BCB9
:1003C00008BC02B01847C046D01800200023C25C09
:1003D0000133002AFBD1581E70470000F0B58E682B
:1003E00085B0071C0C1C03920193B34245D39023A4
:1003F0008A89DB001A423DD00325096923680198E8
:100400005B1A029363695D43EB0F5D19029B6D10EC
:1004100001331B189D4200D21D1C381C53050FD5FB
:10042000291C00F01DFB061E13D0029A2169FFF75C
:100430008FFFA289184B134080221343A38111E040
:100440002A1C00F065FB061E0CD1381C216900F047
:10045000C1FA0C23402201203B60A3894042134390
:10046000A38117E0029B2661F61826606561019E54
:10047000ED1AA560019BB34200D2019E321C206898
:10048000039900F092FA0020A3689B1BA3602368E5
:100490009E19266005B0F0BD7FFBFFFFF0B59FB051
:1004A000029005938B890E1C171C1B0610D50B6937
:1004B000002B0DD1402100F0D3FA306030610028CC
:1004C00004D10C23029A01381360D0E040237361F9
:1004D000002306AD6B6120336B761033AB763C1C8A
:1004E0002378002B03D1E31B049312D003E0252BC8
:1004F000F9D00134F4E7049B0298311C3A1CFFF751
:100500006DFF431C00D1ACE06A69049B94466344D0
:100510006B612378002B00D1A3E00122002352421B
:100520006A6002A95432521801342B60EB60AB6050
:100530001370AB654F4F2178381C052200F02AFA62
:10054000002808D0C01B01278740381C2B680134C5
:1005500018432860EEE72B68DA0604D553222021E1
:1005600002A8121811701A0704D553222B2102A8D1
:100570001218117022782A2A01D0099B0EE0059AE0
:10058000111D12680591002A01DB099204E0524214
:10059000EA60022213432B60013409E02278303AEA
:1005A000092A04D80A214B4301349B18F6E7099322
:1005B00023782E2B18D163782A2B09D1059B02347E
:1005C0001A1D1B680592002B0DDA01235B420AE01D
:1005D000002301342278303A092A04D80A214B43F7
:1005E00001349B18F6E70793234F2178381C032228
:1005F00000F0D0F9002807D0C01B40278740381CE6
:100600002B6801341843286021781C480622671C97
:10061000297600F0BFF9002812D0194B002B06D123
:100620000722059B073393430833059314E005AB7A
:1006300000930298291C321C124B00E000BF07E017
:1006400005AB00930298291C321C0E4B00F08AF86F
:100650000390039B013304D06B69039A9B186B6171
:100660003DE7B3890B985B0601D5012040421FB0DE
:10067000F0BDC046250F02002B0F02002F0F020015
:1006800000000000DD030200F7B5171C01930A69A2
:100690008B6800900C1C934200DA131C221C3B60F8
:1006A00043321278002A01D001333B6023689B0655
:1006B00002D53B6802333B60062523681D401ED0EF
:1006C000231C43331B785A1E9341226892061CD583
:1006D0003020E1184031C870211C5A1C453109787E
:1006E000A21840320233D1700FE0221C012300987F
:1006F00001991932089EB047431C0ED00135E368BA
:100700003A689B1A9D42F0DBDAE7221C00980199B7
:100710004332089DA847431C02D10120404220E0FB
:1007200006232068E1683A6803400025042B03D1C2
:100730008D1AEB43DB171D40A3682269934201DD4C
:100740009B1AED180027AF420ADA221C01230098F9
:1007500001991A32089EB047431CDED00137F2E7F8
:100760000020FEBDF0B58BB006920A1C4332079301
:10077000059004920A7E0C1C109B6E2A00D1A8E002
:1007800011D8632A22D009D8002A00D1B2E0582A11
:1007900000D0C2E045310A707C4A4FE0642A1DD087
:1007A000692A1BD0B9E0732A00D1A7E009D86F2AC3
:1007B00029D0702A00D0B0E0202209680A432260C4
:1007C00037E0752A1FD0782A33D0A6E00E1C1A68AD
:1007D0004236111D196013683370A1E021681A6850
:1007E000080606D4490604D5111D19600023D55EFC
:1007F00002E0111D19601568002D3BDA2D23049AC3
:100800006D42137036E021681A68080606D449065E
:1008100004D51568111D1960ADB202E0111D1960F3
:1008200015685A4B227E03930A276F2A1DD1082789
:100830001BE0221C782145321170554A1968039239
:10084000081D226818600D68100602D4500600D5F5
:10085000ADB2D30702D520231A4322601027002D02
:1008600003D1202322689A432260231C00224333B1
:100870001A7002E00A27454B03936368A360002BBC
:1008800003DB0422216891432160002D02D1049EE4
:10089000002B0ED0049E281C391CFFF74DFD039B36
:1008A000013E5B5C281C3370391CFFF7BFFC051E42
:1008B000F1D1082F09D12368DB0706D563682269C7
:1008C000934202DC3023013E3370049B9B1B236167
:1008D0002BE009681A68080607D4490605D5111DDA
:1008E00019601368A28A1A8004E0111D1960136848
:1008F00062691A600023049E236116E01A68111DC4
:10090000196016680021301C626800F043F8002866
:1009100001D0801B6060636803E0261C42363270A1
:10092000012323610023049A1370079B0598009309
:10093000211C069B09AAFFF7A7FE431C02D1012038
:10094000404221E0236905980699321C079DA8477B
:10095000431CF4D023689B0705D4099BE0689842A8
:1009600012DA181C10E00025E368099A9B1A9D42D0
:10097000F3DA221C0123059806991932079EB04725
:10098000431CDCD00135EFE70BB0F0BD360F0200A1
:10099000470F0200C9B28218904204D003788B42FC
:1009A00002D00130F8E70020704710B5814208D22C
:1009B0008B18984205D29B1A013A09D3995C81544D
:1009C000FAE70023934203D0CC5CC4540133F9E727
:1009D00010BD000030B500293ED004390B68002B53
:1009E00000DAC9181D4A1368141C002B02D14B6091
:1009F000116031E099420DD208680A189A4203D179
:100A00001368C3180B6053684B60216024E08A426E
:100A100003D8131C5A68002AF9D11D685C198C424E
:100A20000BD10968691858181960904214D11068E0
:100A30005268091819605A600EE08C4202D90C23E2
:100A4000036009E008680C18944203D114685268E6
:100A5000001908604A60596030BDC046201C002063
:100A6000032370B5CC1C9C430834051C0C2C01D20C
:100A70000C2405E0002C03DA0C2300202B6042E05C
:100A80008C42F9D3204A1368101C191C002913D07A
:100A90000A68121B0DD40B2A02D90A608B181FE0BA
:100AA0008B4202D15A6802601BE04A685A600B1CF4
:100AB00017E00B1C4968E9E7144E3368002B03D19B
:100AC000281C00F04BF83060281C211C00F046F870
